:020000040000FA
:08000000803102288731FD2F39
:100E0400013041019D0080309E009B019C0108003F
:100E14004F0196019701980199019A019B010800DD
:100E2400623051018D008F019101023093009001D5
:100E34009201080087310A2787318731412787319A
:100E44008731122787318731022787310800F30061
:100E54007308F200F20DF20D41011D087206033908
:100E640072069D001D14000041019D149D183B2F26
:100E74003C2F382F1C08F1001B08F000080040012B
:100E84009C019B011F30980099019A010F30960034
:100E9400E0309200FF309300FF309400FF30950063
:100EA400FF307E01D900FF30CE00FF30C300073091
:100EB400E400E030B800DA01E501C401B901CF0172
:100EC400E601BA01C501D001DB01FF30BB00FF30F0
:100ED400C600FF30D100FF30DC000730E700FF30F0
:100EE400BC00FF30C700FF30D200FF30DD000F3000
:100EF400E800080087311C2787317E015A10B901A8
:100F0400C401DA01400193019501191008308731B9
:100F1400292787317108F6007008F5007608803AB1
:100F2400F40080307402031D992F65307502031C90
:100F34009C2F9D2FA42F4001181498141815981550
:100F44001816882F7608803AF40080307402031D46
:100F5400AD2F51307502031CB02FB12FB82F4001B3
:100F640018149814181598151812882F7608803AB2
:100F7400F40080307402031DC12F3D307502031C40
:100F8400C42FC52FCC2F400118149814181598118C
:100F94001812882F7608803AF40080307402031DFA
:100FA400D52F29307502031CD82FD92FE02F4001EB
:100FB40018149814181198111812882F7608803A6A
:100FC400F40080307402031DE92F15307502031CF0
:100FD400EC2FED2FF42F40011814981018119811CC
:100FE4001812882F4001181098101811981118120F
:0C0FF400882F80310228400187317C2FBB
:020000040001F9
:0A000E00EC3FFF3F9F3FFF3FFF3F25
:00000001FF
